{
  "_format": "hh-sol-artifact-1",
  "contractName": "EmotionalShapes",
  "sourceName": "contracts/EmotionalShapes.sol",
  "abi": [
    {
      "inputs": [],
      "stateMutability": "nonpayable",
      "type": "constructor"
    },
    {
      "anonymous": false,
      "inputs": [
        {
          "indexed": true,
          "internalType": "address",
          "name": "owner",
          "type": "address"
        },
        {
          "indexed": true,
          "internalType": "address",
          "name": "approved",
          "type": "address"
        },
        {
          "indexed": true,
          "internalType": "uint256",
          "name": "tokenId",
          "type": "uint256"
        }
      ],
      "name": "Approval",
      "type": "event"
    },
    {
      "anonymous": false,
      "inputs": [
        {
          "indexed": true,
          "internalType": "address",
          "name": "owner",
          "type": "address"
        },
        {
          "indexed": true,
          "internalType": "address",
          "name": "operator",
          "type": "address"
        },
        {
          "indexed": false,
          "internalType": "bool",
          "name": "approved",
          "type": "bool"
        }
      ],
      "name": "ApprovalForAll",
      "type": "event"
    },
    {
      "anonymous": false,
      "inputs": [
        {
          "indexed": true,
          "internalType": "address",
          "name": "from",
          "type": "address"
        },
        {
          "indexed": true,
          "internalType": "address",
          "name": "to",
          "type": "address"
        },
        {
          "indexed": true,
          "internalType": "uint256",
          "name": "tokenId",
          "type": "uint256"
        }
      ],
      "name": "Transfer",
      "type": "event"
    },
    {
      "inputs": [
        {
          "internalType": "address",
          "name": "to",
          "type": "address"
        },
        {
          "internalType": "uint256",
          "name": "tokenId",
          "type": "uint256"
        }
      ],
      "name": "approve",
      "outputs": [],
      "stateMutability": "nonpayable",
      "type": "function"
    },
    {
      "inputs": [
        {
          "internalType": "address",
          "name": "owner",
          "type": "address"
        }
      ],
      "name": "balanceOf",
      "outputs": [
        {
          "internalType": "uint256",
          "name": "",
          "type": "uint256"
        }
      ],
      "stateMutability": "view",
      "type": "function"
    },
    {
      "inputs": [
        {
          "internalType": "uint256",
          "name": "tokenId",
          "type": "uint256"
        }
      ],
      "name": "getApproved",
      "outputs": [
        {
          "internalType": "address",
          "name": "",
          "type": "address"
        }
      ],
      "stateMutability": "view",
      "type": "function"
    },
    {
      "inputs": [
        {
          "internalType": "address",
          "name": "owner",
          "type": "address"
        },
        {
          "internalType": "address",
          "name": "operator",
          "type": "address"
        }
      ],
      "name": "isApprovedForAll",
      "outputs": [
        {
          "internalType": "bool",
          "name": "",
          "type": "bool"
        }
      ],
      "stateMutability": "view",
      "type": "function"
    },
    {
      "inputs": [
        {
          "internalType": "address",
          "name": "to",
          "type": "address"
        }
      ],
      "name": "mint",
      "outputs": [
        {
          "internalType": "uint256",
          "name": "",
          "type": "uint256"
        }
      ],
      "stateMutability": "nonpayable",
      "type": "function"
    },
    {
      "inputs": [],
      "name": "name",
      "outputs": [
        {
          "internalType": "string",
          "name": "",
          "type": "string"
        }
      ],
      "stateMutability": "view",
      "type": "function"
    },
    {
      "inputs": [
        {
          "internalType": "uint256",
          "name": "tokenId",
          "type": "uint256"
        }
      ],
      "name": "ownerOf",
      "outputs": [
        {
          "internalType": "address",
          "name": "",
          "type": "address"
        }
      ],
      "stateMutability": "view",
      "type": "function"
    },
    {
      "inputs": [
        {
          "internalType": "address",
          "name": "from",
          "type": "address"
        },
        {
          "internalType": "address",
          "name": "to",
          "type": "address"
        },
        {
          "internalType": "uint256",
          "name": "tokenId",
          "type": "uint256"
        }
      ],
      "name": "safeTransferFrom",
      "outputs": [],
      "stateMutability": "nonpayable",
      "type": "function"
    },
    {
      "inputs": [
        {
          "internalType": "address",
          "name": "from",
          "type": "address"
        },
        {
          "internalType": "address",
          "name": "to",
          "type": "address"
        },
        {
          "internalType": "uint256",
          "name": "tokenId",
          "type": "uint256"
        },
        {
          "internalType": "bytes",
          "name": "data",
          "type": "bytes"
        }
      ],
      "name": "safeTransferFrom",
      "outputs": [],
      "stateMutability": "nonpayable",
      "type": "function"
    },
    {
      "inputs": [
        {
          "internalType": "address",
          "name": "operator",
          "type": "address"
        },
        {
          "internalType": "bool",
          "name": "approved",
          "type": "bool"
        }
      ],
      "name": "setApprovalForAll",
      "outputs": [],
      "stateMutability": "nonpayable",
      "type": "function"
    },
    {
      "inputs": [
        {
          "internalType": "bytes4",
          "name": "interfaceId",
          "type": "bytes4"
        }
      ],
      "name": "supportsInterface",
      "outputs": [
        {
          "internalType": "bool",
          "name": "",
          "type": "bool"
        }
      ],
      "stateMutability": "view",
      "type": "function"
    },
    {
      "inputs": [],
      "name": "symbol",
      "outputs": [
        {
          "internalType": "string",
          "name": "",
          "type": "string"
        }
      ],
      "stateMutability": "view",
      "type": "function"
    },
    {
      "inputs": [
        {
          "internalType": "uint256",
          "name": "tokenId",
          "type": "uint256"
        }
      ],
      "name": "tokenURI",
      "outputs": [
        {
          "internalType": "string",
          "name": "",
          "type": "string"
        }
      ],
      "stateMutability": "view",
      "type": "function"
    },
    {
      "inputs": [
        {
          "internalType": "address",
          "name": "from",
          "type": "address"
        },
        {
          "internalType": "address",
          "name": "to",
          "type": "address"
        },
        {
          "internalType": "uint256",
          "name": "tokenId",
          "type": "uint256"
        }
      ],
      "name": "transferFrom",
      "outputs": [],
      "stateMutability": "nonpayable",
      "type": "function"
    }
  ],
  "bytecode": "0x60806040523480156200001157600080fd5b506040518060400160405280600f81526020017f456d6f74696f6e616c53686170657300000000000000000000000000000000008152506040518060400160405280600381526020017f455353000000000000000000000000000000000000000000000000000000000081525081600090816200008f919062000324565b508060019081620000a1919062000324565b5050506200040b565b600081519050919050565b7f4e487b7100000000000000000000000000000000000000000000000000000000600052604160045260246000fd5b7f4e487b7100000000000000000000000000000000000000000000000000000000600052602260045260246000fd5b600060028204905060018216806200012c57607f821691505b602082108103620001425762000141620000e4565b5b50919050565b60008190508160005260206000209050919050565b60006020601f8301049050919050565b600082821b905092915050565b600060088302620001ac7fffffffffffffffffffffffffffffffffffffffffffffffffffffffffffffffff826200016d565b620001b886836200016d565b95508019841693508086168417925050509392505050565b6000819050919050565b6000819050919050565b600062000205620001ff620001f984620001d0565b620001da565b620001d0565b9050919050565b6000819050919050565b6200022183620001e4565b6200023962000230826200020c565b8484546200017a565b825550505050565b600090565b6200025062000241565b6200025d81848462000216565b505050565b5b8181101562000285576200027960008262000246565b60018101905062000263565b5050565b601f821115620002d4576200029e8162000148565b620002a9846200015d565b81016020851015620002b9578190505b620002d1620002c8856200015d565b83018262000262565b50505b505050565b600082821c905092915050565b6000620002f960001984600802620002d9565b1980831691505092915050565b6000620003148383620002e6565b9150826002028217905092915050565b6200032f82620000aa565b67ffffffffffffffff8111156200034b576200034a620000b5565b5b62000357825462000113565b6200036482828562000289565b600060209050601f8311600181146200039c576000841562000387578287015190505b62000393858262000306565b86555062000403565b601f198416620003ac8662000148565b60005b82811015620003d657848901518255600182019150602085019450602081019050620003af565b86831015620003f65784890151620003f2601f891682620002e6565b8355505b6001600288020188555050505b505050505050565b61274d806200041b6000396000f3fe608060405234801561001057600080fd5b50600436106100ea5760003560e01c80636a6278421161008c578063a22cb46511610066578063a22cb4651461026f578063b88d4fde1461028b578063c87b56dd146102a7578063e985e9c5146102d7576100ea565b80636a627842146101f157806370a082311461022157806395d89b4114610251576100ea565b8063095ea7b3116100c8578063095ea7b31461016d57806323b872dd1461018957806342842e0e146101a55780636352211e146101c1576100ea565b806301ffc9a7146100ef57806306fdde031461011f578063081812fc1461013d575b600080fd5b61010960048036038101906101049190611968565b610307565b60405161011691906119b0565b60405180910390f35b6101276103e9565b6040516101349190611a5b565b60405180910390f35b61015760048036038101906101529190611ab3565b61047b565b6040516101649190611b21565b60405180910390f35b61018760048036038101906101829190611b68565b6104c1565b005b6101a3600480360381019061019e9190611ba8565b6105d8565b005b6101bf60048036038101906101ba9190611ba8565b610638565b005b6101db60048036038101906101d69190611ab3565b610658565b6040516101e89190611b21565b60405180910390f35b61020b60048036038101906102069190611bfb565b6106de565b6040516102189190611c37565b60405180910390f35b61023b60048036038101906102369190611bfb565b610724565b6040516102489190611c37565b60405180910390f35b6102596107db565b6040516102669190611a5b565b60405180910390f35b61028960048036038101906102849190611c7e565b61086d565b005b6102a560048036038101906102a09190611df3565b610883565b005b6102c160048036038101906102bc9190611ab3565b6108e5565b6040516102ce9190611a5b565b60405180910390f35b6102f160048036038101906102ec9190611e76565b61094d565b6040516102fe91906119b0565b60405180910390f35b60007f80ac58cd000000000000000000000000000000000000000000000000000000007bffffffffffffffffffffffffffffffffffffffffffffffffffffffff1916827bffffffffffffffffffffffffffffffffffffffffffffffffffffffff191614806103d257507f5b5e139f000000000000000000000000000000000000000000000000000000007bffffffffffffffffffffffffffffffffffffffffffffffffffffffff1916827bffffffffffffffffffffffffffffffffffffffffffffffffffffffff1916145b806103e257506103e1826109e1565b5b9050919050565b6060600080546103f890611ee5565b80601f016020809104026020016040519081016040528092919081815260200182805461042490611ee5565b80156104715780601f1061044657610100808354040283529160200191610471565b820191906000526020600020905b81548152906001019060200180831161045457829003601f168201915b5050505050905090565b600061048682610a4b565b6004600083815260200190815260200160002060009054906101000a900473ffffffffffffffffffffffffffffffffffffffff169050919050565b60006104cc82610658565b90508073ffffffffffffffffffffffffffffffffffffffff168373ffffffffffffffffffffffffffffffffffffffff160361053c576040517f08c379a000000000000000000000000000000000000000000000000000000000815260040161053390611f88565b60405180910390fd5b8073ffffffffffffffffffffffffffffffffffffffff1661055b610a96565b73ffffffffffffffffffffffffffffffffffffffff16148061058a575061058981610584610a96565b61094d565b5b6105c9576040517f08c379a00000000000000000000000000000000000000000000000000000000081526004016105c09061201a565b60405180910390fd5b6105d38383610a9e565b505050565b6105e96105e3610a96565b82610b57565b610628576040517f08c379a000000000000000000000000000000000000000000000000000000000815260040161061f906120ac565b60405180910390fd5b610633838383610bec565b505050565b61065383838360405180602001604052806000815250610883565b505050565b60008061066483610ee5565b9050600073ffffffffffffffffffffffffffffffffffffffff168173ffffffffffffffffffffffffffffffffffffffff16036106d5576040517f08c379a00000000000000000000000000000000000000000000000000000000081526004016106cc90612118565b60405180910390fd5b80915050919050565b600060036106ec6006610f22565b106106f657600080fd5b6107006006610f30565b6107138261070e6006610f22565b610f46565b61071d6006610f22565b9050919050565b60008073ffffffffffffffffffffffffffffffffffffffff168273ffffffffffffffffffffffffffffffffffffffff1603610794576040517f08c379a000000000000000000000000000000000000000000000000000000000815260040161078b906121aa565b60405180910390fd5b600360008373ffffffffffffffffffffffffffffffffffffffff1673ffffffffffffffffffffffffffffffffffffffff168152602001908152602001600020549050919050565b6060600180546107ea90611ee5565b80601f016020809104026020016040519081016040528092919081815260200182805461081690611ee5565b80156108635780601f1061083857610100808354040283529160200191610863565b820191906000526020600020905b81548152906001019060200180831161084657829003601f168201915b5050505050905090565b61087f610878610a96565b8383610f64565b5050565b61089461088e610a96565b83610b57565b6108d3576040517f08c379a00000000000000000000000000000000000000000000000000000000081526004016108ca906120ac565b60405180910390fd5b6108df848484846110d0565b50505050565b60606108f082610a4b565b60006108fa61112c565b9050600081511161091a5760405180602001604052806000815250610945565b806109248461114c565b604051602001610935929190612206565b6040516020818303038152906040525b915050919050565b6000600560008473ffffffffffffffffffffffffffffffffffffffff1673ffffffffffffffffffffffffffffffffffffffff16815260200190815260200160002060008373ffffffffffffffffffffffffffffffffffffffff1673ffffffffffffffffffffffffffffffffffffffff16815260200190815260200160002060009054906101000a900460ff16905092915050565b60007f01ffc9a7000000000000000000000000000000000000000000000000000000007bffffffffffffffffffffffffffffffffffffffffffffffffffffffff1916827bffffffffffffffffffffffffffffffffffffffffffffffffffffffff1916149050919050565b610a548161121a565b610a93576040517f08c379a0000000000000000000000000000000000000000000000000000000008152600401610a8a90612118565b60405180910390fd5b50565b600033905090565b816004600083815260200190815260200160002060006101000a81548173ffffffffffffffffffffffffffffffffffffffff021916908373ffffffffffffffffffffffffffffffffffffffff160217905550808273ffffffffffffffffffffffffffffffffffffffff16610b1183610658565b73ffffffffffffffffffffffffffffffffffffffff167f8c5be1e5ebec7d5bd14f71427d1e84f3dd0314c0f7b2291e5b200ac8c7c3b92560405160405180910390a45050565b600080610b6383610658565b90508073ffffffffffffffffffffffffffffffffffffffff168473ffffffffffffffffffffffffffffffffffffffff161480610ba55750610ba4818561094d565b5b80610be357508373ffffffffffffffffffffffffffffffffffffffff16610bcb8461047b565b73ffffffffffffffffffffffffffffffffffffffff16145b91505092915050565b8273ffffffffffffffffffffffffffffffffffffffff16610c0c82610658565b73ffffffffffffffffffffffffffffffffffffffff1614610c62576040517f08c379a0000000000000000000000000000000000000000000000000000000008152600401610c599061229c565b60405180910390fd5b600073ffffffffffffffffffffffffffffffffffffffff168273ffffffffffffffffffffffffffffffffffffffff1603610cd1576040517f08c379a0000000000000000000000000000000000000000000000000000000008152600401610cc89061232e565b60405180910390fd5b610cde838383600161125b565b8273ffffffffffffffffffffffffffffffffffffffff16610cfe82610658565b73ffffffffffffffffffffffffffffffffffffffff1614610d54576040517f08c379a0000000000000000000000000000000000000000000000000000000008152600401610d4b9061229c565b60405180910390fd5b6004600082815260200190815260200160002060006101000a81549073ffffffffffffffffffffffffffffffffffffffff02191690556001600360008573ffffffffffffffffffffffffffffffffffffffff1673ffffffffffffffffffffffffffffffffffffffff168152602001908152602001600020600082825403925050819055506001600360008473ffffffffffffffffffffffffffffffffffffffff1673ffffffffffffffffffffffffffffffffffffffff16815260200190815260200160002060008282540192505081905550816002600083815260200190815260200160002060006101000a81548173ffffffffffffffffffffffffffffffffffffffff021916908373ffffffffffffffffffffffffffffffffffffffff160217905550808273ffffffffffffffffffffffffffffffffffffffff168473ffffffffffffffffffffffffffffffffffffffff167fddf252ad1be2c89b69c2b068fc378daa952ba7f163c4a11628f55a4df523b3ef60405160405180910390a4610ee08383836001611381565b505050565b60006002600083815260200190815260200160002060009054906101000a900473ffffffffffffffffffffffffffffffffffffffff169050919050565b600081600001549050919050565b6001816000016000828254019250508190555050565b610f60828260405180602001604052806000815250611387565b5050565b8173ffffffffffffffffffffffffffffffffffffffff168373ffffffffffffffffffffffffffffffffffffffff1603610fd2576040517f08c379a0000000000000000000000000000000000000000000000000000000008152600401610fc99061239a565b60405180910390fd5b80600560008573ffffffffffffffffffffffffffffffffffffffff1673ffffffffffffffffffffffffffffffffffffffff16815260200190815260200160002060008473ffffffffffffffffffffffffffffffffffffffff1673ffffffffffffffffffffffffffffffffffffffff16815260200190815260200160002060006101000a81548160ff0219169083151502179055508173ffffffffffffffffffffffffffffffffffffffff168373ffffffffffffffffffffffffffffffffffffffff167f17307eab39ab6107e8899845ad3d59bd9653f200f220920489ca2b5937696c31836040516110c391906119b0565b60405180910390a3505050565b6110db848484610bec565b6110e7848484846113e2565b611126576040517f08c379a000000000000000000000000000000000000000000000000000000000815260040161111d9061242c565b60405180910390fd5b50505050565b60606040518060800160405280604a81526020016126ce604a9139905090565b60606000600161115b84611569565b01905060008167ffffffffffffffff81111561117a57611179611cc8565b5b6040519080825280601f01601f1916602001820160405280156111ac5781602001600182028036833780820191505090505b509050600082602001820190505b60011561120f578080600190039150507f3031323334353637383961626364656600000000000000000000000000000000600a86061a8153600a85816112035761120261244c565b5b049450600085036111ba575b819350505050919050565b60008073ffffffffffffffffffffffffffffffffffffffff1661123c83610ee5565b73ffffffffffffffffffffffffffffffffffffffff1614159050919050565b600181111561137b57600073ffffffffffffffffffffffffffffffffffffffff168473ffffffffffffffffffffffffffffffffffffffff16146112ef5780600360008673ffffffffffffffffffffffffffffffffffffffff1673ffffffffffffffffffffffffffffffffffffffff16815260200190815260200160002060008282546112e791906124aa565b925050819055505b600073ffffffffffffffffffffffffffffffffffffffff168373ffffffffffffffffffffffffffffffffffffffff161461137a5780600360008573ffffffffffffffffffffffffffffffffffffffff1673ffffffffffffffffffffffffffffffffffffffff168152602001908152602001600020600082825461137291906124de565b925050819055505b5b50505050565b50505050565b61139183836116bc565b61139e60008484846113e2565b6113dd576040517f08c379a00000000000000000000000000000000000000000000000000000000081526004016113d49061242c565b60405180910390fd5b505050565b60006114038473ffffffffffffffffffffffffffffffffffffffff166118d9565b1561155c578373ffffffffffffffffffffffffffffffffffffffff1663150b7a0261142c610a96565b8786866040518563ffffffff1660e01b815260040161144e9493929190612567565b6020604051808303816000875af192505050801561148a57506040513d601f19601f8201168201806040525081019061148791906125c8565b60015b61150c573d80600081146114ba576040519150601f19603f3d011682016040523d82523d6000602084013e6114bf565b606091505b506000815103611504576040517f08c379a00000000000000000000000000000000000000000000000000000000081526004016114fb9061242c565b60405180910390fd5b805181602001fd5b63150b7a0260e01b7bffffffffffffffffffffffffffffffffffffffffffffffffffffffff1916817bffffffffffffffffffffffffffffffffffffffffffffffffffffffff191614915050611561565b600190505b949350505050565b600080600090507a184f03e93ff9f4daa797ed6e38ed64bf6a1f01000000000000000083106115c7577a184f03e93ff9f4daa797ed6e38ed64bf6a1f01000000000000000083816115bd576115bc61244c565b5b0492506040810190505b6d04ee2d6d415b85acef81000000008310611604576d04ee2d6d415b85acef810000000083816115fa576115f961244c565b5b0492506020810190505b662386f26fc10000831061163357662386f26fc1000083816116295761162861244c565b5b0492506010810190505b6305f5e100831061165c576305f5e10083816116525761165161244c565b5b0492506008810190505b61271083106116815761271083816116775761167661244c565b5b0492506004810190505b606483106116a4576064838161169a5761169961244c565b5b0492506002810190505b600a83106116b3576001810190505b80915050919050565b600073ffffffffffffffffffffffffffffffffffffffff168273ffffffffffffffffffffffffffffffffffffffff160361172b576040517f08c379a000000000000000000000000000000000000000000000000000000000815260040161172290612641565b60405180910390fd5b6117348161121a565b15611774576040517f08c379a000000000000000000000000000000000000000000000000000000000815260040161176b906126ad565b60405180910390fd5b61178260008383600161125b565b61178b8161121a565b156117cb576040517f08c379a00000000000000000000000000000000000000000000000000000000081526004016117c2906126ad565b60405180910390fd5b6001600360008473ffffffffffffffffffffffffffffffffffffffff1673ffffffffffffffffffffffffffffffffffffffff16815260200190815260200160002060008282540192505081905550816002600083815260200190815260200160002060006101000a81548173ffffffffffffffffffffffffffffffffffffffff021916908373ffffffffffffffffffffffffffffffffffffffff160217905550808273ffffffffffffffffffffffffffffffffffffffff16600073ffffffffffffffffffffffffffffffffffffffff167fddf252ad1be2c89b69c2b068fc378daa952ba7f163c4a11628f55a4df523b3ef60405160405180910390a46118d5600083836001611381565b5050565b6000808273ffffffffffffffffffffffffffffffffffffffff163b119050919050565b6000604051905090565b600080fd5b600080fd5b60007fffffffff0000000000000000000000000000000000000000000000000000000082169050919050565b61194581611910565b811461195057600080fd5b50565b6000813590506119628161193c565b92915050565b60006020828403121561197e5761197d611906565b5b600061198c84828501611953565b91505092915050565b60008115159050919050565b6119aa81611995565b82525050565b60006020820190506119c560008301846119a1565b92915050565b600081519050919050565b600082825260208201905092915050565b60005b83811015611a055780820151818401526020810190506119ea565b60008484015250505050565b6000601f19601f8301169050919050565b6000611a2d826119cb565b611a3781856119d6565b9350611a478185602086016119e7565b611a5081611a11565b840191505092915050565b60006020820190508181036000830152611a758184611a22565b905092915050565b6000819050919050565b611a9081611a7d565b8114611a9b57600080fd5b50565b600081359050611aad81611a87565b92915050565b600060208284031215611ac957611ac8611906565b5b6000611ad784828501611a9e565b91505092915050565b600073ffffffffffffffffffffffffffffffffffffffff82169050919050565b6000611b0b82611ae0565b9050919050565b611b1b81611b00565b82525050565b6000602082019050611b366000830184611b12565b92915050565b611b4581611b00565b8114611b5057600080fd5b50565b600081359050611b6281611b3c565b92915050565b60008060408385031215611b7f57611b7e611906565b5b6000611b8d85828601611b53565b9250506020611b9e85828601611a9e565b9150509250929050565b600080600060608486031215611bc157611bc0611906565b5b6000611bcf86828701611b53565b9350506020611be086828701611b53565b9250506040611bf186828701611a9e565b9150509250925092565b600060208284031215611c1157611c10611906565b5b6000611c1f84828501611b53565b91505092915050565b611c3181611a7d565b82525050565b6000602082019050611c4c6000830184611c28565b92915050565b611c5b81611995565b8114611c6657600080fd5b50565b600081359050611c7881611c52565b92915050565b60008060408385031215611c9557611c94611906565b5b6000611ca385828601611b53565b9250506020611cb485828601611c69565b9150509250929050565b600080fd5b600080fd5b7f4e487b7100000000000000000000000000000000000000000000000000000000600052604160045260246000fd5b611d0082611a11565b810181811067ffffffffffffffff82111715611d1f57611d1e611cc8565b5b80604052505050565b6000611d326118fc565b9050611d3e8282611cf7565b919050565b600067ffffffffffffffff821115611d5e57611d5d611cc8565b5b611d6782611a11565b9050602081019050919050565b82818337600083830152505050565b6000611d96611d9184611d43565b611d28565b905082815260208101848484011115611db257611db1611cc3565b5b611dbd848285611d74565b509392505050565b600082601f830112611dda57611dd9611cbe565b5b8135611dea848260208601611d83565b91505092915050565b60008060008060808587031215611e0d57611e0c611906565b5b6000611e1b87828801611b53565b9450506020611e2c87828801611b53565b9350506040611e3d87828801611a9e565b925050606085013567ffffffffffffffff811115611e5e57611e5d61190b565b5b611e6a87828801611dc5565b91505092959194509250565b60008060408385031215611e8d57611e8c611906565b5b6000611e9b85828601611b53565b9250506020611eac85828601611b53565b9150509250929050565b7f4e487b7100000000000000000000000000000000000000000000000000000000600052602260045260246000fd5b60006002820490506001821680611efd57607f821691505b602082108103611f1057611f0f611eb6565b5b50919050565b7f4552433732313a20617070726f76616c20746f2063757272656e74206f776e6560008201527f7200000000000000000000000000000000000000000000000000000000000000602082015250565b6000611f726021836119d6565b9150611f7d82611f16565b604082019050919050565b60006020820190508181036000830152611fa181611f65565b9050919050565b7f4552433732313a20617070726f76652063616c6c6572206973206e6f7420746f60008201527f6b656e206f776e6572206f7220617070726f76656420666f7220616c6c000000602082015250565b6000612004603d836119d6565b915061200f82611fa8565b604082019050919050565b6000602082019050818103600083015261203381611ff7565b9050919050565b7f4552433732313a2063616c6c6572206973206e6f7420746f6b656e206f776e6560008201527f72206f7220617070726f76656400000000000000000000000000000000000000602082015250565b6000612096602d836119d6565b91506120a18261203a565b604082019050919050565b600060208201905081810360008301526120c581612089565b9050919050565b7f4552433732313a20696e76616c696420746f6b656e2049440000000000000000600082015250565b60006121026018836119d6565b915061210d826120cc565b602082019050919050565b60006020820190508181036000830152612131816120f5565b9050919050565b7f4552433732313a2061646472657373207a65726f206973206e6f74206120766160008201527f6c6964206f776e65720000000000000000000000000000000000000000000000602082015250565b60006121946029836119d6565b915061219f82612138565b604082019050919050565b600060208201905081810360008301526121c381612187565b9050919050565b600081905092915050565b60006121e0826119cb565b6121ea81856121ca565b93506121fa8185602086016119e7565b80840191505092915050565b600061221282856121d5565b915061221e82846121d5565b91508190509392505050565b7f4552433732313a207472616e736665722066726f6d20696e636f72726563742060008201527f6f776e6572000000000000000000000000000000000000000000000000000000602082015250565b60006122866025836119d6565b91506122918261222a565b604082019050919050565b600060208201905081810360008301526122b581612279565b9050919050565b7f4552433732313a207472616e7366657220746f20746865207a65726f2061646460008201527f7265737300000000000000000000000000000000000000000000000000000000602082015250565b60006123186024836119d6565b9150612323826122bc565b604082019050919050565b600060208201905081810360008301526123478161230b565b9050919050565b7f4552433732313a20617070726f766520746f2063616c6c657200000000000000600082015250565b60006123846019836119d6565b915061238f8261234e565b602082019050919050565b600060208201905081810360008301526123b381612377565b9050919050565b7f4552433732313a207472616e7366657220746f206e6f6e20455243373231526560008201527f63656976657220696d706c656d656e7465720000000000000000000000000000602082015250565b60006124166032836119d6565b9150612421826123ba565b604082019050919050565b6000602082019050818103600083015261244581612409565b9050919050565b7f4e487b7100000000000000000000000000000000000000000000000000000000600052601260045260246000fd5b7f4e487b7100000000000000000000000000000000000000000000000000000000600052601160045260246000fd5b60006124b582611a7d565b91506124c083611a7d565b92508282039050818111156124d8576124d761247b565b5b92915050565b60006124e982611a7d565b91506124f483611a7d565b925082820190508082111561250c5761250b61247b565b5b92915050565b600081519050919050565b600082825260208201905092915050565b600061253982612512565b612543818561251d565b93506125538185602086016119e7565b61255c81611a11565b840191505092915050565b600060808201905061257c6000830187611b12565b6125896020830186611b12565b6125966040830185611c28565b81810360608301526125a8818461252e565b905095945050505050565b6000815190506125c28161193c565b92915050565b6000602082840312156125de576125dd611906565b5b60006125ec848285016125b3565b91505092915050565b7f4552433732313a206d696e7420746f20746865207a65726f2061646472657373600082015250565b600061262b6020836119d6565b9150612636826125f5565b602082019050919050565b6000602082019050818103600083015261265a8161261e565b9050919050565b7f4552433732313a20746f6b656e20616c7265616479206d696e74656400000000600082015250565b6000612697601c836119d6565b91506126a282612661565b602082019050919050565b600060208201905081810360008301526126c68161268a565b905091905056fe68747470733a2f2f613635392d323830342d6434622d376138312d373130302d626433332d6331372d316437372d353930632e73612e6e67726f6b2e696f2f6170692f6572633732312fa2646970667358221220e434d4ee16e9ff065602b74d0b41675299471df0fe144c777ac10324f3d57f3b64736f6c63430008110033",
  "linkReferences": {},
  "deployedLinkReferences": {}
}